{
  "contractName": "CryptoSavingBank",
  "abi": [
    {
      "inputs": [],
      "stateMutability": "nonpayable",
      "type": "constructor"
    },
    {
      "anonymous": false,
      "inputs": [
        {
          "indexed": false,
          "internalType": "address",
          "name": "prestatario",
          "type": "address"
        },
        {
          "indexed": false,
          "internalType": "address",
          "name": "prestamista",
          "type": "address"
        },
        {
          "indexed": false,
          "internalType": "uint256",
          "name": "cantidad",
          "type": "uint256"
        }
      ],
      "name": "devolver",
      "type": "event"
    },
    {
      "anonymous": false,
      "inputs": [
        {
          "indexed": false,
          "internalType": "address",
          "name": "reminente",
          "type": "address"
        },
        {
          "indexed": false,
          "internalType": "uint256",
          "name": "cantidad",
          "type": "uint256"
        }
      ],
      "name": "ingresar",
      "type": "event"
    },
    {
      "anonymous": false,
      "inputs": [
        {
          "indexed": false,
          "internalType": "address",
          "name": "prestatario",
          "type": "address"
        },
        {
          "indexed": false,
          "internalType": "address",
          "name": "prestamista",
          "type": "address"
        },
        {
          "indexed": false,
          "internalType": "uint256",
          "name": "cantidad",
          "type": "uint256"
        }
      ],
      "name": "prestamo",
      "type": "event"
    },
    {
      "anonymous": false,
      "inputs": [
        {
          "indexed": false,
          "internalType": "address",
          "name": "receptor",
          "type": "address"
        },
        {
          "indexed": false,
          "internalType": "uint256",
          "name": "cantidad",
          "type": "uint256"
        }
      ],
      "name": "retirar",
      "type": "event"
    },
    {
      "inputs": [
        {
          "internalType": "address",
          "name": "",
          "type": "address"
        }
      ],
      "name": "cuenta",
      "outputs": [
        {
          "internalType": "uint256",
          "name": "",
          "type": "uint256"
        }
      ],
      "stateMutability": "view",
      "type": "function"
    },
    {
      "inputs": [],
      "name": "owner",
      "outputs": [
        {
          "internalType": "address",
          "name": "",
          "type": "address"
        }
      ],
      "stateMutability": "view",
      "type": "function"
    },
    {
      "inputs": [
        {
          "internalType": "uint256",
          "name": "cantidad",
          "type": "uint256"
        }
      ],
      "name": "Ingresar",
      "outputs": [],
      "stateMutability": "payable",
      "type": "function"
    },
    {
      "inputs": [
        {
          "internalType": "uint256",
          "name": "cantidad",
          "type": "uint256"
        }
      ],
      "name": "Retirar",
      "outputs": [],
      "stateMutability": "nonpayable",
      "type": "function"
    },
    {
      "inputs": [
        {
          "internalType": "address",
          "name": "banco",
          "type": "address"
        },
        {
          "internalType": "uint256",
          "name": "cantidad",
          "type": "uint256"
        }
      ],
      "name": "Prestamo",
      "outputs": [],
      "stateMutability": "payable",
      "type": "function"
    },
    {
      "inputs": [
        {
          "internalType": "address",
          "name": "banco",
          "type": "address"
        },
        {
          "internalType": "uint256",
          "name": "cantidad",
          "type": "uint256"
        }
      ],
      "name": "Devolver",
      "outputs": [],
      "stateMutability": "nonpayable",
      "type": "function"
    }
  ],
  "bytecode": "0x608060405234801561001057600080fd5b50336000806101000a81548173ffffffffffffffffffffffffffffffffffffffff021916908373ffffffffffffffffffffffffffffffffffffffff160217905550610b9b806100606000396000f3fe6080604052600436106100555760003560e01c806340da82cf1461005a5780635280b87b146100765780638da5cb5b1461009f578063c1010f2f146100ca578063d82b795f146100e6578063fcd5cc2c1461010f575b600080fd5b610074600480360381019061006f91906107cf565b61014c565b005b34801561008257600080fd5b5061009d600480360381019061009891906107cf565b61028f565b005b3480156100ab57600080fd5b506100b46104a4565b6040516100c1919061081e565b60405180910390f35b6100e460048036038101906100df9190610839565b6104c8565b005b3480156100f257600080fd5b5061010d60048036038101906101089190610839565b6105b2565b005b34801561011b57600080fd5b5061013660048036038101906101319190610866565b61071e565b60405161014391906108a2565b60405180910390f35b60008054906101000a900473ffffffffffffffffffffffffffffffffffffffff1673ffffffffffffffffffffffffffffffffffffffff163373ffffffffffffffffffffffffffffffffffffffff16146101a457600080fd5b7ff49f0fcaa836d3da6c06555e3cdf975df4e2a6bc4357a3c88ea6eb914ffb4d373383836040516101d7939291906108bd565b60405180910390a180600160003373ffffffffffffffffffffffffffffffffffffffff1673ffffffffffffffffffffffffffffffffffffffff168152602001908152602001600020600082825461022e9190610923565b9250508190555080600160008473ffffffffffffffffffffffffffffffffffffffff1673ffffffffffffffffffffffffffffffffffffffff16815260200190815260200160002060008282546102849190610979565b925050819055505050565b600067016345785d8a0000905060008054906101000a900473ffffffffffffffffffffffffffffffffffffffff1673ffffffffffffffffffffffffffffffffffffffff163373ffffffffffffffffffffffffffffffffffffffff16146102f457600080fd5b818161030091906109ad565b8261030b9190610923565b600160003373ffffffffffffffffffffffffffffffffffffffff1673ffffffffffffffffffffffffffffffffffffffff16815260200190815260200160002054101561038c576040517f08c379a000000000000000000000000000000000000000000000000000000000815260040161038390610a8a565b60405180910390fd5b7fec7a4be524137be0529ee65b6b85a977bc6402dffbf4700ebc2b74a2d33225cc3384846040516103bf939291906108bd565b60405180910390a181816103d391906109ad565b826103de9190610923565b600160003373ffffffffffffffffffffffffffffffffffffffff1673ffffffffffffffffffffffffffffffffffffffff168152602001908152602001600020600082825461042c9190610979565b92505081905550818161043f91906109ad565b8261044a9190610923565b600160008573ffffffffffffffffffffffffffffffffffffffff1673ffffffffffffffffffffffffffffffffffffffff16815260200190815260200160002060008282546104989190610923565b92505081905550505050565b60008054906101000a900473ffffffffffffffffffffffffffffffffffffffff1681565b60008054906101000a900473ffffffffffffffffffffffffffffffffffffffff1673ffffffffffffffffffffffffffffffffffffffff163373ffffffffffffffffffffffffffffffffffffffff161461052057600080fd5b7f0b31cee9e74d3c2c12dd352e2a469281a87a89c3110fce15067e1a8fe0a7d81d3382604051610551929190610aaa565b60405180910390a180600160003373ffffffffffffffffffffffffffffffffffffffff1673ffffffffffffffffffffffffffffffffffffffff16815260200190815260200160002060008282546105a89190610923565b9250508190555050565b60008054906101000a900473ffffffffffffffffffffffffffffffffffffffff1673ffffffffffffffffffffffffffffffffffffffff163373ffffffffffffffffffffffffffffffffffffffff161461060a57600080fd5b80600160003373ffffffffffffffffffffffffffffffffffffffff1673ffffffffffffffffffffffffffffffffffffffff16815260200190815260200160002054101561068c576040517f08c379a000000000000000000000000000000000000000000000000000000000815260040161068390610b45565b60405180910390fd5b7fb10465d74d72662cdd83ea548cd3268e7fd4aa23cc0552cc06dabde0153643d633826040516106bd929190610aaa565b60405180910390a180600160003373ffffffffffffffffffffffffffffffffffffffff1673ffffffffffffffffffffffffffffffffffffffff16815260200190815260200160002060008282546107149190610979565b9250508190555050565b60016020528060005260406000206000915090505481565b600080fd5b600073ffffffffffffffffffffffffffffffffffffffff82169050919050565b60006107668261073b565b9050919050565b6107768161075b565b811461078157600080fd5b50565b6000813590506107938161076d565b92915050565b6000819050919050565b6107ac81610799565b81146107b757600080fd5b50565b6000813590506107c9816107a3565b92915050565b600080604083850312156107e6576107e5610736565b5b60006107f485828601610784565b9250506020610805858286016107ba565b9150509250929050565b6108188161075b565b82525050565b6000602082019050610833600083018461080f565b92915050565b60006020828403121561084f5761084e610736565b5b600061085d848285016107ba565b91505092915050565b60006020828403121561087c5761087b610736565b5b600061088a84828501610784565b91505092915050565b61089c81610799565b82525050565b60006020820190506108b76000830184610893565b92915050565b60006060820190506108d2600083018661080f565b6108df602083018561080f565b6108ec6040830184610893565b949350505050565b7f4e487b7100000000000000000000000000000000000000000000000000000000600052601160045260246000fd5b600061092e82610799565b915061093983610799565b9250827fffffffffffffffffffffffffffffffffffffffffffffffffffffffffffffffff0382111561096e5761096d6108f4565b5b828201905092915050565b600061098482610799565b915061098f83610799565b9250828210156109a2576109a16108f4565b5b828203905092915050565b60006109b882610799565b91506109c383610799565b9250817fffffffffffffffffffffffffffffffffffffffffffffffffffffffffffffffff04831182151516156109fc576109fb6108f4565b5b828202905092915050565b600082825260208201905092915050565b7f4e6f20646973706f6e6520646520737566696369656e746520666f6e646f207060008201527f617261206465766f6c7665720000000000000000000000000000000000000000602082015250565b6000610a74602c83610a07565b9150610a7f82610a18565b604082019050919050565b60006020820190508181036000830152610aa381610a67565b9050919050565b6000604082019050610abf600083018561080f565b610acc6020830184610893565b9392505050565b7f45737461207265746972616e646f20756e612063616e7469646164207375706560008201527f72696f722061206c612071756520646973706f6e650000000000000000000000602082015250565b6000610b2f603583610a07565b9150610b3a82610ad3565b604082019050919050565b60006020820190508181036000830152610b5e81610b22565b905091905056fea2646970667358221220ab20374a106a73b041e2383028d48bc884a05c51fedfcc0ffcd8f3ba81e5fee664736f6c634300080d0033",
  "immutableReferences": {},
  "source": "// SPDX-License-Identifier: MIT\r\npragma solidity >=0.4.22 <0.9.0;\r\n\r\ncontract CryptoSavingBank {\r\n  address public owner;\r\n  mapping (address => uint) public cuenta;\r\n\r\n  event ingresar (address reminente, uint cantidad);\r\n  event retirar (address receptor, uint cantidad);\r\n  event prestamo (address prestatario, address prestamista, uint cantidad);\r\n  // Devolucion de prestamo\r\n  event devolver (address prestatario, address prestamista, uint cantidad);\r\n\r\n  modifier restricted() {\r\n    require(\r\n      msg.sender == owner,\r\n      \"This function is restricted to the contract's owner\"\r\n    );\r\n    _;\r\n  }\r\n  constructor()\r\n  {\r\n    owner = msg.sender;\r\n  }\r\n  function Ingresar (uint cantidad) public payable\r\n  {\r\n    require(msg.sender==owner);\r\n    emit ingresar (msg.sender,cantidad);\r\n    cuenta[msg.sender] += cantidad;\r\n  }\r\n\r\n  function Retirar (uint cantidad) public\r\n  {\r\n    require(msg.sender==owner);\r\n    require(cuenta[msg.sender] >= cantidad, \"Esta retirando una cantidad superior a la que dispone\");\r\n    emit retirar(msg.sender, cantidad);\r\n    cuenta[msg.sender] -=  cantidad;\r\n  }\r\n\r\n  function Prestamo (address banco, uint cantidad) public payable\r\n  {\r\n    require(msg.sender==owner);\r\n    emit prestamo (msg.sender, banco, cantidad);\r\n    cuenta[msg.sender] += cantidad;\r\n    cuenta[banco] -= cantidad;\r\n  }\r\n\r\n  function Devolver (address banco, uint cantidad) public\r\n  {\r\n    //0.1 Eth;  1 eth = 10^8 wei; todos los numeros representados en wei\r\n    uint interes =1 ether/10;\r\n    require(msg.sender==owner);\r\n    require(cuenta[msg.sender]>=(cantidad + interes * cantidad), \"No dispone de suficiente fondo para devolver\");\r\n    emit devolver(msg.sender, banco, cantidad);\r\n    cuenta[msg.sender] -= (cantidad + interes * cantidad);\r\n    cuenta[banco] += (cantidad + interes * cantidad);\r\n  }\r\n}\r\n",
  "sourcePath": "D:\\Mastet\\Master\\blockchain\\CSB\\contracts\\CSB.sol",
  "compiler": {
    "name": "solc",
    "version": "0.8.13+commit.abaa5c0e.Emscripten.clang"
  },
  "schemaVersion": "3.4.7",
  "updatedAt": "2022-04-13T15:49:18.957Z",
  "devdoc": {
    "kind": "dev",
    "methods": {},
    "version": 1
  },
  "userdoc": {
    "kind": "user",
    "methods": {},
    "version": 1
  }
}